:100000000C943F020C9467020C9467020C946419E0
:100010000C9464190C9464190C9467020C94670294
:100020000C9467020C9467020C9467020C946702AC
:100030000C9467020C9467020C9467020C9467029C
:100040000C94E2090C9467020C9467020C9467020A
:100050000C9467020C9467020C9467020C9467027C
:100060000C9467020C946702434C4F5345204F4B4E
:100070000D0A004552524F520D0A00414C52454163
:10008000445920434F4E4E4543540D0A00434F4EB2
:100090004E454354204641494C0D0A00434F4E4EB5
:1000A000454354204F4B0D0A00222C00222C2200E5
:1000B00022544350002B43495053544152543D0065
:1000C0002B43495053534C3D002C31002B43495096
:1000D000434C4F53453D000D0A4441544120414398
:1000E000434550543A003E002B43495053454E443B
:1000F0003D00434C4F5345440D0A000D0A2B524519
:1001000043454956453A000D0A2B4349505258473A
:1001100045543A002B4346554E3D312C31002B437C
:1001200046554E3D30002657002B434C54533D312D
:10013000000D0A2B434F50533A002B434F50533F6F
:10014000002B43444E534346473D22382E382E3829
:100150002E38222C22382E382E342E3422002B43D7
:10016000494653523B4530002B43474154543D30A0
:10017000002B43495053485554002B43494943529F
:10018000002200222C2200222C22002B4353545404
:100190003D22002B43495052584745543D31002BD6
:1001A0004349505153454E443D31002B4349504D36
:1001B00055583D31002B43474154543D31002B539A
:1001C000415042523D322C31002B53415042523D5E
:1001D000312C31002B43474143543D312C31002B0E
:1001E000434744434F4E543D312C224950222C2248
:1001F000002B53415042523D332C312C2250574456
:10020000222C22002B53415042523D332C312C22C0
:1002100055534552222C22002B53415042523D331C
:100220002C312C2241504E222C22002B5341504283
:10023000523D332C312C22436F6E74797065222C21
:10024000224750525322000D0A2B435245473A0091
:100250002B435245473F0000000000240027002A9E
:10026000002B43495052584745543A002B434950BC
:1002700052584745543D322C002C22494E4954498E
:10028000414C22002C2252454D4F544520434C4FA7
:1002900053494E4722002C22434C4F53494E47228C
:1002A000002C22434C4F53454422002C22434F4EF6
:1002B0004E454354454422002B4349505354415426
:1002C0005553002B4349505354415455533D002B33
:1002D00043495052584745543A002B4349505258CD
:1002E0004745543D342C0000000008000201000086
:1002F0000304070000000000000000D016D016D054
:1003000016D016D016D016D016D016D016D016D0BD
:1003100016D016D016D016D016D016D016D016D0AD
:1003200016D016D016D016D016D016D016D016D09D
:1003300016D016D016D016D016D0165A175B175BEB
:10034000175B175B175B175B175B175B175B175B1D
:10035000175B175B175B175B175B175B175B175B0D
:10036000175B175B175B175B175B175B175B175BFD
:10037000175B175B175B175B175B17626C6E6B691C
:100380006E660076657200302E362E3100682D6262
:1003900065617400363000627566662D696E0032E4
:1003A0003536006465760041726475696E6F204E63
:1003B000616E6F006370750041546D656761333223
:1003C000385000636F6E0053494D3830300062750D
:1003D000696C640053657020323920323031392025
:1003E00031393A32363A3331000000453000264682
:1003F0005A004E4F54205245414459004E4F54200C
:10040000494E5345525445440053494D2050554B95
:100410000053494D2050494E005245414459000D6A
:100420000A2B4350494E3A002B4350494E3F00455A
:1004300052524F520D0A004F4B0D0A0000000000AF
:100440000023002600290000000000250028002BC2
:10045000000404040404040404020202020202036D
:100460000303030303010204081020408001020477
:10047000081020010204081020000E23D0221124AD
:100480001FBECFEFD8E0DEBFCDBF11E0A0E0B1E0EE
:10049000EEE9FFE402C005900D92A43EB107D9F742
:1004A00024E0A4EEB1E001C01D92A433B207E1F74D
:1004B00012E0CEE3D2E004C02197FE010E94A42600
:1004C000CD33D107C9F70E94961D0C94C2270C9416
:1004D0000000DC01ED91FC910688F789E02D09957B
:1004E00091E0811101C090E0892F0895CF93DF93AF
:1004F000EC01E881F9810084F185E02D0995892BD3
:1005000011F48D8901C081E0DF91CF910895DC0164
:100510001C96ED91FC911D9782819381DC01ED91F8
:10052000FC910680F781E02D09948FEF9FEF0895ED
:10053000CF93DF931F92CDB7DEB7DC01ED91FC9135
:100540000288F389E02D41E050E0BE016F5F7F4FEC
:100550000995019719F4898190E002C08FEF9FEF10
:100560000F90DF91CF910895CF93DF931F92CDB776
:10057000DEB76983DC01ED91FC910280F381E02D0F
:1005800041E050E0BE016F5F7F4F09950F90DF9112
:10059000CF910895DC01ED91FC9102A0F3A1E02D33
:1005A00048E95AE360E070E009940F931F93CF93FA
:1005B000DF9300D000D000D0CDB7DEB7DC01ED91E5
:1005C000FC9100A0F1A1E02D2BE731E03A832983D3
:1005D000DB0112960D911D912D913C9115970B8386
:1005E0001C832D833E832BE430E0BE016F5F7F4F81
:1005F000099526960FB6F894DEBF0FBECDBFDF91EA
:10060000CF911F910F910895DC01ED91FC91068C23
:10061000F78DE02D2BE430E00994089580E090E020
:1006200008950C94AD240C94AD242F923F924F92D8
:100630005F926F927F928F929F92AF92BF92CF9272
:10064000DF92EF92FF920F931F93CF93DF93CDB77B
:10065000DEB728970FB6F894DEBF0FBECDBF9887E0
:100660008F832B015C834B8360E070E0CB010E94A1
:100670004E0BEF81F885848595850E947C0FA12C17
:10068000B12C8F819885895A9F4F9A8389836F8077
:10069000788499E5690E711CEF81F8857796FE8361
:1006A000ED838B819C81A816B90608F09BC0E98177
:1006B000FA8180819181F30120813181821B930B2A
:1006C00097FF02C0805C9F4FCB80DC80CA18DB089C
:1006D0008C159D0508F46C01C114D104D1F14601BB
:1006E0001201F301E080F180E981FA81808191813A
:1006F0008E199F0997FF02C0805C9F4F009729F4D5
:100700004C0C5D1CAC0CBD1CCCCF00E410E00E19F1
:100710001F09801691060CF48401801791070CF4D0
:100720008C016D817E816E0D7F1DA801C1010E942B
:100730007527E00EF11EFFE3EF22FF24F301F182A3
:10074000E082801A910A200E311E81149104C1F2B8
:10075000C8CF0E94340CEF81F88501891289238962
:100760003489DC01CB01801B910BA20BB30B853FBD
:100770009140A105B10560F021E0EF81F885268B5D
:100780000E94340CEF81F885618B728B838B948B84
:10079000EF81F885848595850E947C0FEF81F8852F
:1007A000878590890097F1F04685F301608171811A
:1007B000E981FA8120813181621B730B16161706BD
:1007C00014F0605C7F4F615071098617970708F439
:1007D000BC01EF81F885848595850E946210892B84
:1007E00009F05FCFC50128960FB6F894DEBF0FBEA3
:1007F000CDBFDF91CF911F910F91FF90EF90DF90D0
:10080000CF90BF90AF909F908F907F906F905F90B0
:100810004F903F902F9008958F929F92AF92BF92EA
:10082000EF92FF920F931F93CF93DF93EC0160E061
:1008300070E0CB010E944E0B7E0127E5E20EF11C19
:100840008E01075A1F4FF70180819181F8012081A5
:100850003181821B930B97FF3CC0803CFFEF9F07C9
:1008600039F50E94340C89889A88AB88BC88DC01F1
:10087000CB0188199909AA09BB09853F9140A105B7
:10088000B10540F081E08E8B0E94340C698B7A8B2D
:100890008B8B9C8B8C859D850E947C0FF7018081C2
:1008A0009181F80120813181821B930B97FF02C057
:1008B000805C9F4F2F853889820F931FDF91CF91E6
:1008C0001F910F91FF90EF90BF90AF909F908F90EE
:1008D0000895009779F7C5CF6115710579F0FB018F
:1008E00001900020E9F73197AF01461B570BDC015F
:1008F000ED91FC910280F381E02D099480E090E07D
:1009000008954F925F926F927F928F929F92AF92D3
:10091000BF92EF92FF920F931F93CF93DF93EC015F
:100920002A013B0160E070E0CB010E944E0B8E017A
:10093000075A1F4FD8011D921C927E01B7E5EB0E9E
:10094000F11CF701118210828C859D850E947C0F1D
:100950000E94340C4B015C018F859889892B91F1A1
:100960000E94340CDC01CB0188199909AA09BB0942
:1009700084159505A605B70528F54E85D8016D9116
:100980007C91F70180819181681B790B16161706FF
:1009900014F0605C7F4F8F859889615071098617CC
:1009A000970708F4BC018C859D850E946210D801D0
:1009B0001D921C92F701118210828C859D850E94E8
:1009C0007C0FCACFFE840C851D8563E871E0D801D9
:1009D00012968D919C9113970E94361C6CEC70E0DE
:1009E000F801828193810E94381C6F2DD8011296E4
:1009F0008D919C9113970E94B30A69EC70E0F80105
:100A0000828193810E94381C66E871E0D8011296B9
:100A10008D919C9113970E94361CF80182819381DD
:100A2000DC01ED91FC910680F781E02D099560E0F5
:100A300070E0CB010E944E0B1D8AE12CF12C00E0EE
:100A400010E020E030E04FE254E067E374E08C8592
:100A50009D850E94511BDF91CF911F910F91FF90B7
:100A6000EF90BF90AF909F908F907F906F905F902E
:100A70004F900895089508958F929F92AF92BF92DC
:100A8000CF92DF92EF92FF920F931F93CF93DF935A
:100A900000D000D000D0CDB7DEB78C014B015A0199
:100AA00060E070E0CB010E944E0BD8011C968D9146
:100AB0009C911D970E947C0FF801C484D5849501F8
:100AC000468568EE70E0C6010E94F10BE12CF12C26
:100AD00000E010E020E030E04FE254E066EE70E02D
:100AE000C6010E94511B813019F0C12CD12C3CC091
:100AF000D60112968D919C911397DC01ED91FC919A
:100B00000280F381E02DA501B4010995F6018281EF
:100B10009381DC01ED91FC910680F781E02D099530
:100B2000E12CF12C00E010E020E030E04FE254E056
:100B300067ED70E0C6010E94511B8130B1F66CE296
:100B4000C6010E949E1BF601628173814AE0CE01BC
:100B500001960E945F1DCE0101960E942C0A6B0136
:100B6000CE0101960E941918C60126960FB6F89478
:100B7000DEBF0FBECDBFDF91CF911F910F91FF90D0
:100B8000EF90DF90CF90BF90AF909F908F9008959F
:100B90002F923F924F925F926F927F928F929F928D
:100BA000AF92BF92CF92DF92EF92FF920F931F937B
:100BB000CF93DF93CDB7DEB7A0970FB6F894DEBF23
:100BC0000FBECDBF1C012A013B013C8B2B8B1E8B22
:100BD0000D8BF88EEF8ADA8EC98EBC8EAB8E68E8EC
:100BE00071E0CE010D960E94561860E470E0CE01CF
:100BF0000D960E94C6170E94340C6D8F7E8F8F8FCA
:100C000098A360E070E0CB010E944E0BD1011296D8
:100C10008D919C911397DC01ED91FC910084F185FD
:100C2000E02D0995181619060CF00EC2F10182810B
:100C30009381DC01ED91FC910284F385E02D09950F
:100C4000181619061CF789831A8241E050E0BE018C
:100C50006F5F7F4FCE010D960E94370AEB89FC89AA
:100C6000EF2B29F42D893E89232BE1F416C06B89E3
:100C70007C89CE0101960E941E18BE016F5F7F4FD6
:100C8000CE010D960E94F61B182FCE0101960E94F0
:100C90001918112339F311E032C24F89588D452BB1
:100CA000E1F416C06D897E89CE0101960E941E185E
:100CB000BE016F5F7F4FCE010D960E94F61B182F6D
:100CC000CE0101960E941918112339F312E017C2C0
:100CD000898D9A8D892BE1F416C06F89788DCE01AC
:100CE00001960E941E18BE016F5F7F4FCE010D96C8
:100CF0000E94F61B182FCE0101960E94191811238D
:100D000039F313E0FCC1AB8DBC8DAB2B61F516C084
:100D1000698D7A8DCE0101960E941E18BE016F5F0B
:100D20007F4FCE010D960E94F61B182FCE01019623
:100D30000E941918112339F314E0E1C167E071E052
:100D4000CE0101960E941E18BE016F5F7F4FCE013B
:100D50000D960E94F61B182FCE0101960E941918BD
:100D6000111117C062C06B8D7C8DCE0101960E945F
:100D70001E18BE016F5F7F4FCE010D960E94F61BBD
:100D8000182FCE0101960E9419181123B9F215E00F
:100D9000B6C1F101628173814CE2CE0107960E94D7
:100DA0005F1DCE0107960E942C0A613071058105F6
:100DB000910571F5D10112966D917C9113974AE0DE
:100DC000CE0101960E945F1DCE0101960E942C0A61
:100DD0006B017C01CE0101960E941918B5E0CB167B
:100DE000D10478F4E2E0CE0ED11CCC0CDD1CF10174
:100DF000EC0DFD1D0190F081E02D309711F021E008
:100E0000268B68E871E0CE010D960E94ED1708C0B0
:100E10004B855C856F817885CE010D960E94370ADF
:100E2000CE0107960E941918F1CE6BEF70E0CE014B
:100E300001960E941E18BE016F5F7F4FCE010D9676
:100E40000E94F61B182FCE0101960E94191811233B
:100E500009F442C0D10112966D917C9113974CE236
:100E6000CE0101960E945F1DCE0101960E942C0AC0
:100E70006B017C01CE0101960E941918F10162817B
:100E800073814AE0CE0101960E945F1DCE0101965A
:100E90000E942C0A4B015C01CE0101960E94191898
:100EA000F5E0CF16D10488F422E0C20ED11CCC0CA0
:100EB000DD1CF101EC0DFD1D0190F081E02D30975E
:100EC00021F031E0368B908A878668E871E0CE01A8
:100ED0000D960E94ED179ACE62EF70E0CE0101965A
:100EE0000E941E18BE016F5F7F4FCE010D960E94BB
:100EF000F61B182FCE0101960E941918112309F430
:100F000085CE09891A890850110966E871E0CE0179
:100F100001960E9456182D813E812115310551F10F
:100F200089899A89009731F18217930718F1081778
:100F3000190718F08C0101501109CD84DE848980D5
:100F40009A80C601EE24EA94FF24FA945601A00E7A
:100F5000B11EA816B90688F0B4010E94A827009710
:100F600061F09C012C193D090217130708F0790163
:100F70000196EFCF0FEF1FEF01C08701CE01019661
:100F80000E9419180E5F1F4F89899A89081719073F
:100F900070F4CD84DE846CE270E0C601800F911F96
:100FA0000E947E27009719F08C199D0902C08FEFCF
:100FB0009FEF7C018017910728F4902F812F8701E4
:100FC000E92EF82E68E871E0CE0101960E945618CD
:100FD000C988DA880C151D05C0F4EC14FD0408F46A
:100FE0006701ED85FE85EC0DFD1DF08010826D859D
:100FF0007E85600F711FCE0101960E94ED178D85D1
:101000009E85FC01EC0DFD1DF082CE0101960E9433
:101010002C0A6B017C01CE0101960E94191845E053
:10102000C416D10408F051CF52E0C50ED11CCC0C2F
:10103000DD1CF101EC0DFD1D0190F081E02D3097DC
:1010400009F443CF158A41CF0E94340CDC01CB0157
:101050002D8D3E8D4F8D58A1821B930BA40BB50B8C
:1010600084159505A605B70508F4CBCDCD84DE849F
:10107000C114D104E9F109891A8901151105C1F1D9
:10108000760157013FEFA31AB30AD7018C91082EBE
:10109000000C990B0E94D625892B11F07501F1CF18
:1010A000015011090C0D1D1DF8018081082E000C46
:1010B000990B0E94D625892B31F00E151F0518F0CB
:1010C00001501109F1CFA8014F5F5F4F4E195F0921
:1010D0005A8B498BCE14DF0420F4B701C6010E945D
:1010E0007527ED85FE8589899A89E80FF91F108299
:1010F00068E871E0CE010D960E94ED1710E0CE0178
:101100000D960E941918812FA0960FB6F894DEBF95
:101110000FBECDBFDF91CF911F910F91FF90EF9048
:10112000DF90CF90BF90AF909F908F907F906F9007
:101130005F904F903F902F9008955F926F927F92B3
:101140008F929F92AF92BF92CF92DF92EF92FF92D7
:101150000F931F93CF93DF934C013B015A01690119
:10116000DC01ED91FC910488F589E02D099560E0A2
:1011700070E0CB010E944E0BF401E75AFF4F118241
:101180001082329711821082F4015684C485D5856D
:1011900063E871E08A819B810E94361C60EC70E0FC
:1011A0008A819B810E94381C2AE040E050E0BA010D
:1011B0008A819B810E941B1966E871E08A819B816C
:1011C0000E94361C8A819B81DC01ED91FC91068096
:1011D000F781E02D099560E070E0CB010E944E0B95
:1011E000E12CF12C00E010E020E030E04FE254E090
:1011F00067E374E0CE010E94511B63E871E08A81CD
:101200009B810E94361C65EB70E08A819B810E9465
:10121000381C652D8A819B810E94B30A6CE28A8109
:101220009B810E94C11860EB70E08A819B810E94C3
:10123000381C6CEA70E08A819B810E94381CB301E3
:101240008A819B810E94361C69EA70E08A819B81B9
:101250000E94381CA50160E070E02AE08A819B8131
:101260000E941B1966E871E08A819B810E94361CEE
:101270008A819B81DC01ED91FC910680F781E02D54
:10128000099560E070E0CB010E944E0B28EE33E040
:10129000D6010E948926AB01BC0188E6A82E80E019
:1012A000B82E93E7C92E90E0D92E2BE7E22E20E04E
:1012B000F22E0DE810E02CE930E0CE010E94C805C6
:1012C00091E0813009F090E0F401958B892F90E056
:1012D000DF91CF911F910F91FF90EF90DF90CF9012
:1012E000BF90AF909F908F907F906F905F90089588
:1012F000AF92BF92CF92DF92EF92FF920F931F9324
:10130000CF93DF9300D000D000D0CDB7DEB77C0103
:101310008B016A01590168E871E0CE0101960E94D3
:10132000561860E170E0CE0101960E94C617D80100
:1013300012966C91CE0101960E946D1BCE01019612
:101340000E94981BF8016381CE0101960E946D1BDB
:10135000CE0101960E94981BD80114966C91CE0183
:1013600001960E946D1BCE0101960E94981BF80108
:101370006581CE0101960E946D1B69817A81D7013A
:10138000ED91FC91068CF78DE02D9501A601C7012A
:1013900009958C01CE0101960E941918C801269664
:1013A0000FB6F894DEBF0FBECDBFDF91CF911F9176
:1013B0000F91FF90EF90DF90CF90BF90AF90089586
:1013C0000E9470271F920F920FB60F9211242F9335
:1013D0003F938F939F93AF93BF938091EC01909134
:1013E000ED01A091EE01B091EF013091EB0123E00E
:1013F000230F2D3720F40196A11DB11D05C026E84D
:10140000230F0296A11DB11D2093EB018093EC01E7
:101410009093ED01A093EE01B093EF018091F00164
:101420009091F101A091F201B091F3010196A11DFB
:10143000B11D8093F0019093F101A093F201B0935C
:10144000F301BF91AF919F918F913F912F910F9099
:101450000FBE0F901F901895FC018081918100971D
:1014600011F00C94542560E070E0CB010895EF92E8
:10147000FF920F931F93CF93DF936115710511F4C2
:1014800080E01CC041155105C1F07B01EC018C814D
:101490009D818A01080F191FB801CE010E94C6174D
:1014A000882371F3288139818C819D81B701820F56
:1014B000931F0E9492271D830C8381E0DF91CF91BF
:1014C0001F910F91FF90EF900895833081F028F4E1
:1014D000813099F08230A1F008958730A9F08830EA
:1014E000B9F08430D1F4809180008F7D03C0809169
:1014F00080008F7780938000089584B58F7702C035
:1015000084B58F7D84BD08958091B0008F7703C02E
:101510008091B0008F7D8093B00008953FB7F8941C
:101520008091F0019091F101A091F201B091F3014D
:1015300026B5A89B05C02F3F19F00196A11DB11D2E
:101540003FBFBA2FA92F982F8827820F911DA11D69
:10155000B11DBC01CD0142E0660F771F881F991FA6
:101560004A95D1F70895462F50E060E070E02AE0F8
:101570000C941B19CF93DF93282F30E0F901E95128
:10158000FD4F8491F901EB59FB4FD491F901EF5ACA
:10159000FB4FC491CC2391F081110E94650AEC2F7E
:1015A000F0E0EE0FFF1FE35CFB4FA591B491EC91CF
:1015B000ED2381E090E021F480E002C080E090E043
:1015C000DF91CF9108951F93CF93DF93282F30E0C1
:1015D000F901E951FD4F8491F901EB59FB4FD49189
:1015E000F901EF5AFB4FC491CC23C1F0162F8111A2
:1015F0000E94650AEC2FF0E0EE0FFF1FE95BFB4F46
:10160000A591B4919FB7F894111104C08C91D09515
:10161000D82302C0EC91DE2BDC939FBFDF91CF91EA
:101620001F910895CF93DF9390E0FC01EB59FB4F9E
:101630002491FC01EF5AFB4F8491882361F190E0E3
:10164000880F991FFC01E95AFD4FC591D491FC0107
:10165000E95BFB4FA591B491611109C09FB7F89464
:101660008881209582238883EC912E230BC06230E1
:1016700061F49FB7F8948881322F30958323888353
:10168000EC912E2B2C939FBF06C08FB7F894E88166
:101690002E2B28838FBFDF91CF9108958F929F9239
:1016A000AF92BF92CF92DF92EF92FF926B017C01DB
:1016B0000E948E0A4B015C01C114D104E104F104C3
:1016C000F1F00E948E0ADC01CB0188199909AA0960
:1016D000BB09883E9340A105B10570F321E0C21A11
:1016E000D108E108F10888EE880E83E0981EA11C5D
:1016F000B11CC114D104E104F10419F7DDCFFF904E
:10170000EF90DF90CF90BF90AF909F908F90089513
:10171000EF92FF920F931F93CF93DF93EC017B0126
:101720008A0163E871E08A819B810E94361CB701BF
:101730008A819B810E94381CB8018A819B810E940A
:10174000361C62E28A819B810E94C11866E871E0C2
:101750008A819B810E94361C8A819B81DC01ED91EC
:10176000FC910680F781E02D099560E070E0CB01E7
:10177000DF91CF911F910F91FF90EF900C944E0B42
:10178000EF92FF921F93CF93DF93EC017B01142F15
:1017900063E871E08A819B810E94361CB7018A81CF
:1017A0009B810E94381C612F8A819B810E94B30A11
:1017B00066E871E08A819B810E94361C8A819B8148
:1017C000DC01ED91FC910680F781E02D099560E048
:1017D00070E0CB01DF91CF911F91FF90EF900C94BF
:1017E0004E0BCF92DF92FF920F931F93CF93DF9315
:1017F000EC016B01F42E890163E871E08A819B8121
:101800000E94361CB6018A819B810E94381C6F2D74
:101810008A819B810E94B30A6CE28A819B810E942B
:10182000C118A80160E070E02AE08A819B810E94D3
:101830001B1966E871E08A819B810E94361C8A81AF
:101840009B81DC01ED91FC910680F781E02D0995EB
:1018500060E070E0CB01DF91CF911F910F91FF907D
:10186000DF90CF900C944E0B2FB7F8946091EC0161
:101870007091ED018091EE019091EF012FBF0895DD
:101880002F923F924F925F926F927F928F929F9290
:10189000AF92BF92CF92DF92EF92FF920F931F937E
:1018A000CF93DF931F92CDB7DEB77C0169836A01C6
:1018B00049016DB67EB6DC018D919C910E94231C7E
:1018C000882309F47EC089818D7F09F40DC1B98117
:1018D000B63009F409C1BD3109F406C1F7018789A1
:1018E000908D019709F06DC0C114D10449F4D7015E
:1018F0005496CD90DC905597C114D10409F47FC063
:1019000089818C50893008F490C08114910409F4C5
:10191000C4C05801B5E0AB0EB11CEDB7FEB7EA1973
:10192000FB090FB6F894FEBF0FBEEDBF2DB73EB753
:101930002F5F3F4F290139813183DC24CD24DC2402
:10194000D2011296DC92CE921197902F812F14968D
:101950009C938E9313978114910409F0A1C000E029
:1019600010E00A151B0508F0AAC0A501401B510B89
:101970004115B4E05B0710F040E054E0D701ED9171
:10198000FC9180819181DC01ED91FC910280F381D9
:10199000E02DB201600F711F09956C0160E070E0ED
:1019A000CB010E944E0BC114D10409F085C0F70190
:1019B000808191810E94161CD70158961C921E921C
:1019C00057970FB6F8947EBE0FBE6DBE0FB6F89453
:1019D0007EBE0FBE6DBE0F90DF91CF911F910F9114
:1019E000FF90EF90DF90CF90BF90AF909F908F903F
:1019F0007F906F905F904F903F902F9008955296F8
:101A00008D919C915397019629F053969C938E93B8
:101A1000529705C081E090E0F701938B828BD7014C
:101A20005296CD90DC9053976BCFF70182859385CA
:101A3000A485B5854681578160857185481759070A
:101A40006A077B0710F4AC01BD011A012B01F2E417
:101A50002F0E311C411C511C0E94340CA20191011B
:101A6000261B370B480B590B57FD0EC0C7010E94B0
:101A700068110E94340CA2019101261B370B480B00
:101A8000590B57FFF3CF41CFD70156968C91811157
:101A90003CCFC7010E94681138CFA12CB12C3ACF9E
:101AA0000115110509F45BCF8DB79EB70696A80105
:101AB000B4010E94752753CF0C0D1D1D52CFA016E7
:101AC000B10641F0F701108E178A808191810E9442
:101AD000161C77CF0E94340CD7011A966D937D9314
:101AE0008D939C931D976DCFC114D10409F00DCF38
:101AF000FECEEF92FF920F931F93CF93DF93CDB75C
:101B0000DEB7C658D1090FB6F894DEBF0FBECDBF01
:101B10007C01162FCE010196CF57DF4F9983888322
:101B2000C158D040CD57DF4F19821882C358D040DA
:101B300080E890E0CB57DF4F99838883C558D04029
:101B400069E971E0CE018F579F4F0E944A1AB70191
:101B5000CE018F579F4F0E94821A612F70E0CE01F5
:101B60008F579F4F0E94821ACD57DF4F08811981EE
:101B7000C358D04001501109CF57DF4F2881398118
:101B8000C158D040E12CF12C40E050E064E187EAFC
:101B900093E00E94400CCA57DF4F0FB6F894DEBFA7
:101BA0000FBECDBFDF91CF911F910F91FF90EF90AE
:101BB0000895EF92FF920F931F93CF93DF93CDB7CA
:101BC000DEB7C658D1090FB6F894DEBF0FBECDBF41
:101BD0007C018B01CE010196CF57DF4F998388831B
:101BE000C158D040CD57DF4F19821882C358D0401A
:101BF00080E890E0CB57DF4F99838883C558D04069
:101C00006091450270E0CE018F579F4F0E94821A6B
:101C10006CE971E0CE018F579F4F0E944A1AF7017D
:101C200060817181CE018F579F4F0E94821AB80147
:101C3000CE018F579F4F0E94821ACD57DF4F0881E8
:101C40001981C358D04001501109CF57DF4F288167
:101C50003981C158D040E12CF12C40E050E06FE0D8
:101C600087EA93E00E94400CCA57DF4F0FB6F89402
:101C7000DEBF0FBECDBFDF91CF911F910F91FF90BF
:101C8000EF900895EF92FF920F931F93CF93DF93FE
:101C9000CDB7DEB7C658D1090FB6F894DEBF0FBE78
:101CA000CDBF8C01CE010196CF57DF4F998388833A
:101CB000C158D040CD57DF4F19821882C358D04049
:101CC00080E890E0CB57DF4F99838883C558D04098
:101CD0006091450270E0CE018F579F4F0E94821A9B
:101CE00069E971E0CE018F579F4F0E944A1A65E063
:101CF00070E0CE018F579F4F0E94821AB801CE012B
:101D00008F579F4F0E94821ACD57DF4F088119814C
:101D1000C358D04001501109CF57DF4F2881398176
:101D2000C158D040E12CF12C40E050E06FE087EA50
:101D300093E00E94400CCA57DF4F0FB6F894DEBF05
:101D40000FBECDBFDF91CF911F910F91FF90EF900C
:101D50000895EF92FF920F931F93CF93DF93CDB728
:101D6000DEB7C658D1090FB6F894DEBF0FBECDBF9F
:101D70008C01CE010196CF57DF4F99838883C158DC
:101D8000D040CD57DF4F19821882C358D04080E829
:101D900090E0CB57DF4F99838883C558D04069E9DD
:101DA00071E0CE018F579F4F0E944A1A60E070E0A9
:101DB000CE018F579F4F0E94821AB801CE018F57D4
:101DC0009F4F0E94821ACD57DF4F08811981C35857
:101DD000D04001501109CF57DF4F28813981C158B8
:101DE000D040E12CF12C40E050E064E187EA93E040
:101DF0000E94400CCA57DF4F0FB6F894DEBF0FBEEB
:101E0000CDBFDF91CF911F910F91FF90EF9008957B
:101E10008F929F92AF92BF92EF92FF920F931F9378
:101E2000CF93DF934B015C017A018091A5039091E0
:101E3000A60397FF17C00E94340CE5E6F2E024E108
:101E4000DF01322F1D923A95E9F760837183828317
:101E500093837496A3E0E53AFA0791F71092A603EC
:101E60001092A5038091A5039091A603409774F466
:101E7000E5E6F2E000E010E084819581892B49F0ED
:101E80000F5F1F4F749600311105B1F78FEF9FEF71
:101E900028C0E114F104D1F384E1809FE001819F27
:101EA000D00D1124CB59DD4F89869A86AB86BC862E
:101EB000FD82EC821F821E8218861E861D8681E0AE
:101EC000898B0E94340C688379838A839B838091F9
:101ED000A5039091A60301969093A6038093A50372
:101EE000C801DF91CF911F910F91FF90EF90BF90AC
:101EF000AF909F908F9008954F925F926F927F92D4
:101F00008F929F92AF92BF92CF92DF92EF92FF9209
:101F10000F931F93CF93DF9300D000D000D0CDB7A5
:101F2000DEB74C015C01512CD50114966D907C906C
:101F300015976114710409F487C0F3018689882319
:101F400009F482C0168A452D6AED72E0C4010E9430
:101F5000C00BE12CF12C00E010E020E030E04FE27B
:101F600054E06FEC72E0C4010E94511B8130E9F132
:101F7000D5011496CD90DC901597452D63EC72E059
:101F8000C4010E94C00BE12CF12C00E010E020E025
:101F900030E04FE254E068EB72E0C4010E94511B54
:101FA00089E7E82E82E0F82E04E812E026E932E024
:101FB00041EA52E06BEA72E0C4010E94511B482ED4
:101FC000E12CF12C00E010E020E030E04FE254E0A2
:101FD00067E374E0C4010E94511B81E0481280E075
:101FE000F601858BC12CD12C2CC06CE2C4010E945F
:101FF0009E1B6CE2C4010E949E1BD40112966D913F
:102000007C9113974AE0CE0101960E945F1DCE019C
:1020100001960E942C0A6B01CE0101960E941918AC
:10202000E12CF12C00E010E020E030E04FE254E041
:1020300067E374E0C4010E94511BC114D10409F488
:1020400097CFF301D08AC786F2E0AF0EB11C53944C
:1020500085E0581269CFD40112968D919C91139707
:10206000DC01ED91FC910084F185E02D0995892B2F
:1020700091F0A12CB12CC12CD12CE12CF12C00E041
:1020800010E020E030E04FE050E060E070E0C4019C
:102090000E94C805E0CF26960FB6F894DEBF0FBEAB
:1020A000CDBFDF91CF911F910F91FF90EF90DF9007
:1020B000CF90BF90AF909F908F907F906F905F90E8
:1020C0004F9008952F923F924F925F926F927F921E
:1020D0008F929F92AF92BF92CF92DF92EF92FF9238
:1020E0000F931F93CF93DF93CDB7DEB72C970FB627
:1020F000F894DEBF0FBECDBF1C019B01742E6CE6B1
:1021000072E00E94F10BE12CF12C00E010E020E0E5
:1021100030E04FE254E061E672E0C1010E94511BE1
:10212000813009F08BC06CE2C1010E949E1B6CE201
:10213000C1010E949E1BD10112966D917C91139753
:102140004CE2CE0101960E945F1DCE0101960E94D5
:102150002C0A4B015C017C876B87CE0101960E94A3
:102160001918F101628173814AE0CE0101960E9443
:102170005F1DCE0101960E942C0A6B017C01CE01ED
:1021800001960E941918272D30E038872F83C90146
:102190000296880F991FD101A80FB91FBA87A98786
:1021A000EB85FC850E171F0774F50E94340C2B017C
:1021B0003C01D10112968D919C911397DC01ED9118
:1021C000FC910084F185E02D0995892BD1F50E94C1
:1021D000340CDC01CB0184199509A609B709E985FE
:1021E000FA8520813181F901248135814681578129
:1021F00082179307A407B50720F560E070E0CB01D4
:102200000E944E0BD6CFEF81F8853296EE0FFF1F5E
:10221000E20DF31D0190F081E02DD08AC786E12CFC
:10222000F12C00E010E020E030E04FE254E067E302
:1022300074E0C1010E94511BC40131C080E090E0F4
:102240002EC0D10112968D919C911397DC01ED91D6
:10225000FC910284F385E02D0995E985FA852081BA
:102260003181F901E95AFF4F408151813A019FEFD5
:10227000691A790AAFE36A227724D901A75ABF4FB6
:102280006D917C916616770639F0D901A40FB51FC0
:1022900057968C93718260820F5F1F4F81CF2C966F
:1022A0000FB6F894DEBF0FBECDBFDF91CF911F9167
:1022B0000F91FF90EF90DF90CF90BF90AF909F90E5
:1022C0008F907F906F905F904F903F902F900895E8
:1022D0002F923F924F925F926F927F928F929F9236
:1022E000AF92BF92CF92DF92EF92FF920F931F9324
:1022F000CF93DF93CDB7DEB7A7970FB6F894DEBFC5
:102300000FBECDBF6C012DB73EB73FA32EA360E03B
:1023100070E0CB010E944E0BD60157968D919C9197
:102320005897029709F436C156968C9156978F5F4D
:1023300056968C93569754962D913C915597232BF6
:1023400009F08FC0833008F08CC0F6018081918144
:102350000E94231C582E8823A1F09E012F5F3F4F1F
:102360003901D601ED91FC9180819181DC01ED91E3
:10237000FC910084F185E02D0995181619060CF4DE
:102380000BC10E94340C2B013C01F601808191812C
:102390000E94231CD60157962D913C9158972130CD
:1023A000310509F061C0F601811105C046865786E6
:1023B000608A718A13C086819781A085B185A30147
:1023C0009201281B390B4A0B5B0BDA01C901813BD7
:1023D00030E3930731E0A307B10538F0108E178A78
:1023E000808191810E94161C5BC081369A4EA105A6
:1023F000B10590F4F60182859385A485B585A30186
:102400009201281B390B4A0B5B0BDA01C90181369B
:102410009A4EA105B10528F1F60186859785A08918
:10242000B189A3019201281B390B4A0B5B0BDA011E
:10243000C90181379741A105B10598F0E12CF12C34
:1024400000E010E020E030E040E050E066E0C6014F
:102450000E94400CD6011E964D925D926D927C9228
:102460005197BB24B3948EC0232BD9F7F601468530
:102470005785608971898823A9F0441A550A660A2C
:10248000770AF1E74F16F7E15F066104710448F33C
:10249000D6018D919C910E94161CF601108E178A10
:1024A000B12C70C0D301C201841B950BA60BB70BD6
:1024B00089389341A105B105A0F2D6018D919C9177
:1024C0000E94161CF60100811181D80118966D91A9
:1024D0007C9119978D919C9111971A964D915C91D1
:1024E0001B97DC01ED91FC916115710521F00088CD
:1024F000F189E02D15C00684F785E02D2BE731E04A
:102500003A832983D80114968D909D90AD90BC900C
:1025100017978B829C82AD82BE82BE016F5F7F4F18
:102520000995BB24B394019709F0B12CF801B48646
:10253000B11008C0D6011E964D925D926D927C92AC
:10254000519720C081E090E0F601938B828B22812D
:102550003381F90101900020E9F731978F01021BC7
:10256000130BE12CF12C41E050E06DE1C6010E941B
:10257000400CF60182859385A485B585868797876B
:10258000A08BB18BD60156968C915697815056965A
:102590008C93A3C3B12CA1C3D601ED91FC91A08073
:1025A000B1808E01095E1F4FE12CF12CC5010E9404
:1025B000911897FD1CC0F80181938F01FFEFEF1A6E
:1025C000FF0A25E0E216F10489F7288C398C3224C1
:1025D00023243224398E288EEA8CFB8CFE24EF24AF
:1025E000FE24FB8EEA8E2114310429F403C3EF2864
:1025F00009F4FEC2FFC21F89111145C00E94340CAC
:10260000D60116966D937D938D939C93199757964B
:102610002D913C915897232B81F52A94232869F515
:10262000E9E0EE16F10409F1F8ECEF16F10429F0F7
:1026300024E0E216F10409F0DDC2D6011E966D9386
:102640007D938D939C935197E1E0F0E05896FC9335
:10265000EE935797C6010E94E81960E070E0CB0145
:102660000E944E0B0E94A71AC3C283E090E0D601DD
:1026700058969C938E935797BDC2B5E0EB16F10424
:1026800009F06FCEB7C2F60180819181F1E0EF16BB
:10269000FF0640F0D60158961C921E9257970E9452
:1026A000161CA6C2EDB7FEB7FBA3EAA397012F5FE6
:1026B0003F4F4DB75EB7421B530B0FB6F8945EBF4A
:1026C0000FBE4DBFADB7BEB711964D01FC010190D5
:1026D000F081E02DFDA3ECA3B9A3A8A3A12CB12CFC
:1026E000EA14FB0479F08CA19DA10E94911897FD3A
:1026F00074C2A8A1B9A18D93B9A3A8A3BFEFAB1AC7
:10270000BB0AEECF5401AE0CBF1CF50110820E9433
:10271000340CD60116966D937D938D939C931997E7
:10272000113109F445C248F4163039F11F3009F46B
:1027300095C0123009F047C20DC01D3159F020F488
:10274000143109F48BC03FC2193219F1173309F45F
:1027500046C239C2F6018789908D892B71F421E038
:1027600030E0308F278BC6010E94E81960E070E0EE
:10277000CB010E944E0B0E94A71AE12CF12C08EC11
:1027800010E020E030E0A10160E0C6010E94400CB2
:1027900026C2D60114968D919C911597892B39F4F8
:1027A00080E290E00E941524F601958384839A824A
:1027B0008982BC82AB828A149B0408F00EC240E27C
:1027C00050E0B401D60114968D919C9115970E940A
:1027D0009927C3010E94EC22FC01808191818A1516
:1027E0009B0578F489819A81009731F02B813C8197
:1027F0008217930708F408C260E070E0CB018B01F8
:1028000002C000E510E0D6018D919C910E94161C3B
:10281000D601ED91FC91119714968D919C9115978D
:10282000918780871387028758961C921E9257972C
:102830000E94340CDC01CB0188589341A109B109F5
:10284000F60182879387A487B58786839783A087BD
:10285000B18786879787A08BB18BC1C1D60155966A
:102860003C922E9254979D8E8C8EBF8EAE8E8A1483
:102870009B0408F099C1F40100811181CE014C96AE
:102880000E94EC22DC018D919C918A159B0508F039
:102890008BC18C8D9D8DFC012081213459F40196D2
:1028A0000E943625863091050CF019C13EE0432E7A
:1028B000480E05C0CE014C960E94FF22482E0637D6
:1028C000F2E71F0709F412C158F4013632E7130783
:1028D00009F458C0043642E7140709F052C115C084
:1028E000043687E71807B1F1063797E7190709F4A7
:1028F0001EC10136174709F048C187C0043642E7B8
:10290000140709F03EC144244A947A8A698A1C8AD1
:102910001B8A20E130E03E8B2D8B6CE971E0CE010B
:1029200041960E944A1A642D70E0CE0141960E94A1
:10293000821A842D0E94BA0ABC0151C0073722E7CF
:10294000120708F464C1043687E7180709F0E8C0E5
:1029500044244A94CE014C960E94EC22DC018D91D5
:102960009C918A159B0508F01FC161E0842D0E948F
:10297000120BCE014C960E94FF2261E0892B09F0D8
:1029800064C0ABC07A8A698A1C8A1B8AE0E1F0E0E5
:10299000FE8BED8B6AEA71E0CE0141960E944A1AE5
:1029A000642D70E0CE0141960E94821AFDE0F4157C
:1029B00010F422EF420E842D8770806480937C0097
:1029C00080917A00806480937A0080917A0086FDFD
:1029D000FCCF609178008091790070E0782BCE0177
:1029E00041960E94821A0B891C890150110929897C
:1029F0003A89E12CF12C40E050E064E1D2C001368C
:102A0000174709F0C2C044244A94CE014C960E9454
:102A1000EC22DC018D919C918A159B0508F0C4C0C5
:102A200061E0842D0E94120BCE014C960E94FF2281
:102A30008C0161E0842D0E94120B0115110509F42F
:102A40004CC00F3F110529F461E0842D0E94E30A78
:102A5000ABC0E42DF0E0E951FD4FE491E330F9F033
:102A600048F4E130B9F0E230A1F584B5806284BD6C
:102A700008BD9AC0E730E9F0E83019F1E43049F5D3
:102A80008091800080628093800010938B0000937F
:102A90008A008AC084B5806884BD07BD85C08091E6
:102AA00080008068809380001093890000938800E4
:102AB0007BC08091B00080688093B0000093B30029
:102AC00073C08091B00080628093B0000093B40026
:102AD0006BC0003811050CF0B7CF60E0B6CF0637F9
:102AE000F2E71F0709F02ACF44244A944982BFE144
:102AF000B41508F459C0E42DF0E0EE0FFF1FE550C7
:102B0000FD4F259134912115310509F44DC0E6E1C1
:102B1000203D3E0709F448C0C301F901099544C0AE
:102B2000063797E7190709F06ACF44244A94CE0183
:102B30004C960E94EC228C8D9D8D9C0128193909A0
:102B4000E21AF30A9A838983FC82EB82FE82ED8289
:102B5000498AFFE1F41540F1E42DF0E0EE0FFF1F8C
:102B6000E55CFC4F2591349121153105E9F047E1F1
:102B70002B353407C9F0B301CE014196F90109950F
:102B800013C000371D4609F480C0D60154964D91FC
:102B90005C915597E12CF12C02E010E020E030E050
:102BA00060E0C6010E94400CF601158A148A17C025
:102BB0009A828982BC82AB828A149B0480F4C3010E
:102BC0000E94EC220CC0D60158961C921E92579778
:102BD0008D919C910E94161C02C0B12C01C0B52C95
:102BE000EAA1FBA10FB6F894FEBF0FBEEDBF04C073
:102BF000B52C02C0B12C02C0B110B3CBD6018D915F
:102C00009C910E94161CBECC0E945425F8CD013622
:102C100032E7130709F072CE7A8A698A1C8A1B8A06
:102C2000E0E1F0E0FE8BED8B6AEA71E0CE014196C7
:102C30000E944A1A6FEF70E0CE0141960E94821AFC
:102C400044244A94B6CEFC012081213421F501961A
:102C50000E9436258630910524F52EE0F22EF80EDE
:102C6000CE014C960E94EC220C8D1D8D6FE971E017
:102C7000C8010E948927892BB9F460E08F2D0E943A
:102C8000120BCE014C960E94EC228C8D9D8D8A15E4
:102C90009B05C8F289CFCE014C960E94FF22F82EE8
:102CA000DFCFFF24FA94DCCF62EA71E0C8010E9412
:102CB0008927892B39F066EA71E0C8010E948927CB
:102CC000892B11F461E0DACF6DEA71E0C8010E944E
:102CD0008927892BB1F662E0D1CF8B2DEEA1FFA120
:102CE0000FB6F894FEBF0FBEEDBFA7960FB6F894CF
:102CF000DEBF0FBECDBFDF91CF911F910F91FF902F
:102D0000EF90DF90CF90BF90AF909F908F907F908B
:102D10006F905F904F903F902F900895CF92DF92E9
:102D2000EF92FF920F931F93CF93DF936C017A0181
:102D30008B01C0E0D0E0CE15DF0581F0D8016D91A8
:102D40008D01D601ED91FC910190F081E02DC6013D
:102D50000995892B11F02196EECF7E01C701DF91F5
:102D6000CF911F910F91FF90EF90DF90CF9008953A
:102D70002091E6013091E7012817390771F490910D
:102D8000E4018091E501981741F0E091E401F0E061
:102D9000EB50FE4F808190E008958FEF9FEF0895F4
:102DA00008951F93CF93DF93DC015C968D919C91E6
:102DB0005D97009739F421E030E013963C932E9311
:102DC00012973BC05196ED91FC91529750962C91E1
:102DD0005097322F30951FB75E964C915E97742FA7
:102DE000727041FD6095F8944081772311F0422B79
:102DF00001C043234083EC012197F1F748E0508163
:102E000060FF02C0522B01C053235083EC01219775
:102E1000F1F76695415099F78081772319F0832364
:102E2000808302C0282B20831FBF5C968D919C91CC
:102E30005D970197F1F781E090E0DF91CF911F91CD
:102E400008952091E6013091E7012817390771F4C0
:102E50008091E5012091E40190E0805C9F4F821B0E
:102E6000910960E470E00E945326089580E090E0AC
:102E700008952091E6013091E70128173907B9F448
:102E80009091E4018091E501981789F0E091E401C7
:102E9000F0E0EB50FE4F80812091E40130E02F5FA5
:102EA0003F4F2F7333272093E40190E008958FEF75
:102EB0009FEF0895089508958091BE039091BF03F8
:102EC000019711F00C9400000895CF93DF93EC016B
:102ED00088819981009711F00E94AD24198218828F
:102EE0001D821C821B821A82DF91CF910895CF939D
:102EF000DF9300D0CDB7DEB79091E8018091F40167
:102F0000992309F181113DC088E090E09A8389837B
:102F10006FEF73E0CE0101960E94D90D8FEF93E021
:102F20000E94420E8FEF93E00E94A90E8FEF8093D4
:102F30004402809143026FEF90E00E94790D81E09E
:102F40008093F4011EC08823E1F088E090E09A832A
:102F5000898360E070E0CE0101960E94D90D80E087
:102F600090E00E94420E80E090E00E94A90E109234
:102F700044028091430260E090E00E94790D10923B
:102F8000F4010F900F90DF91CF9108950F931F934D
:102F9000CF93DF93EC0188819981009729F02A81F2
:102FA0003B812617370788F48B016F5F7F4F0E94A4
:102FB000AA26009761F0998388831B830A832C815A
:102FC0003D81232B11F4FC01108281E001C080E0DF
:102FD000DF91CF911F910F910895EF92FF920F9380
:102FE0001F93CF93DF938C017B016115710569F00D
:102FF000FB0101900020E9F73197EF01C61BD70BC9
:10300000BE010E94C617811104C0C8010E94651745
:1030100008C0F801D583C483B701808191810E94E3
:103020009227C801DF91CF911F910F91FF90EF90F0
:103030000895FC01808191810C94AD24EF92FF9260
:103040000F931F93CF93DF93EC01198218821B8299
:103050001A821D821C826115710509F18B01CB0159
:103060000E948B257C01BC01CE010E94C6178111F4
:1030700009C0CE01DF91CF911F910F91FF90EF908A
:103080000C946517FD82EC82B80188819981DF91EB
:10309000CF911F910F91FF90EF900C948425DF91B9
:1030A000CF911F910F91FF90EF900895EF92FF92B3
:1030B0000F931F93CF93DF93EC01198218821B8229
:1030C0001A821D821C826115710521F18B01FB01A1
:1030D00001900020E9F731977F01E61AF70AB7015E
:1030E0000E94C617811109C0CE01DF91CF911F91B7
:1030F0000F91FF90EF900C946517FD82EC82B80160
:1031000088819981DF91CF911F910F91FF90EF906E
:103110000C949227DF91CF911F910F91FF90EF9028
:1031200008950F931F93CF93DF93EC010E94340C0B
:10313000688779878A879B87E881F9810284F3858C
:10314000E02DCE01099597FF17C00E94340C088529
:1031500019852A853B85DC01CB01801B910BA20BD5
:10316000B30B0C811D812E813F8180179107A2072F
:10317000B30710F38FEF9FEFDF91CF911F910F9166
:103180000895DC01ED91FC910190F081E02D09940E
:103190008F929F92AF92BF92CF92DF92EF92FF9267
:1031A0000F931F93CF93DF937C018B014C0182E03F
:1031B000880E911C5701E5E0AE0EB11CC0E0D0E0D6
:1031C000F40161914F01C8010E94B30A6C016EE2E3
:1031D000C8010E94C1188C0D9D1DC80FD91F8A14EB
:1031E0009B0471F7F7016581C8010E94B30A8C0F37
:1031F0009D1FDF91CF911F910F91FF90EF90DF9076
:10320000CF90BF90AF909F908F90089561157105FA
:1032100079F0FB0101900020E9F73197AF01461BDF
:10322000570BDC01ED91FC910280F381E02D0994B4
:1032300080E090E008958F929F92AF92BF92EF92BC
:10324000FF920F931F93CF93DF93CDB7DEB7A19774
:103250000FB6F894DEBF0FBECDBF7C01FA01CB01E3
:1032600019A2223008F42AE08E010F5D1F4F822E32
:10327000912CA12CB12CBF01A50194010E946726BD
:10328000F901CA01015011096A3014F4605D01C0EE
:10329000695CD8016C93232B242B252B61F7B80193
:1032A000C7010E940619A1960FB6F894DEBF0FBEA3
:1032B000CDBFDF91CF911F910F91FF90EF90BF9005
:1032C000AF909F908F9008951F920F920FB60F921C
:1032D00011242F933F934F935F936F937F938F931B
:1032E0009F93AF93BF93EF93FF93E091E601F0912B
:1032F000E701309709F451C0968DA685B78585857D
:1033000091FF04C09C91892329F447C09C91892393
:1033100009F043C0A389B4899C918589809589234C
:103320008C93868997890197F1F7608D718DA685B9
:10333000B785558538E020E0CB010197F1F7822F62
:1033400090E095958795282F4C91452309F02068AA
:10335000315091F7868D81FD20958091E50190E0B7
:1033600001968F7399273091E401381749F0A091A5
:10337000E501B0E0AB50BE4F2C938093E50103C054
:10338000868D8160868F828D938D0197F1F7A38959
:10339000B4899C918589892B8C93FF91EF91BF9182
:1033A000AF919F918F917F916F915F914F913F91DD
:1033B0002F910F900FBE0F901F90189560E177E24C
:1033C00080E090E00E944E0BE0E0F0E00995FFCF36
:1033D000CF92DF92EF92FF920F931F93CF93DF93E1
:1033E000CDB7DEB7C65AD1090FB6F894DEBF0FBE0F
:1033F000CDBF6C0146E650E063E873E0CE01019674
:103400000E947B25CE0189599F4F7C0106E610E082
:103410009E012F5F3F4F40E050E061E1C6010E94F6
:10342000400CCA55DF4F0FB6F894DEBF0FBECDBFBC
:10343000DF91CF911F910F91FF90EF90DF90CF9090
:1034400008950F931F93CF93DF93EC018B0163E8F3
:1034500071E08A819B810E94361CB8018A819B8120
:103460000E94381C66E871E08A819B810E94361CAC
:103470008A819B81DC01ED91FC910680F781E02D32
:10348000099560E070E0CB01DF91CF911F910F9122
:103490000C944E0B0F931F93CF93DF93FC0122816B
:1034A00033816115710561F480819181A9014F5FBC
:1034B0005F4F53834283FC01E20FF31F10821DC054
:1034C000DB010D900020E9F78D01061B170BA80109
:1034D000420F531F848195818417950770F0EF0187
:1034E00080819181A801820F931F0E9475274A81D4
:1034F0005B81400F511F5B834A83DF91CF911F9106
:103500000F9108950F931F93CF93DF93CDB7DEB73D
:1035100062970FB6F894DEBF0FBECDBF8C01CB0112
:103520004AE0BE016F5F7F4F0E949425BE016F5F2E
:103530007F4FC8010E944A1A62960FB6F894DEBF08
:103540000FBECDBFDF91CF911F910F910895AF9224
:10355000BF92CF92DF92EF92FF920F931F93CF9380
:10356000DF93CDB7DEB7C658D1090FB6F894DEBFEA
:103570000FBECDBFCE0101965C01CF57DF4F9983BF
:103580008883C158D040CD57DF4F19821882C35865
:10359000D04020E8C22ED12CCB57DF4FD982C88231
:1035A000C558D0406091450270E080589F4F0E94FE
:1035B000821A60EB71E0CE018F579F4F0E944A1A2A
:1035C00062EB71E0CE018F579F4F0E944A1ACD5790
:1035D000DF4F08811981C358D04001501109CF57DE
:1035E000DF4F28813981C158D040E12CF12C40E0D7
:1035F00050E06FE087EA93E00E94400C80912C013C
:10360000882371F1CF57DF4FB982A882C158D040CB
:10361000CD57DF4F19821882C358D040CB57DF4FA8
:10362000D982C882C558D04063ED71E0CE018F5772
:103630009F4F0E944A1ACD57DF4F08811981C35806
:10364000D04001501109CF57DF4F28813981C1582F
:10365000D04040E050E06EE087EA93E00E94400CEA
:10366000E12CF12C00E010E020E030E040E050E000
:1036700060E187EA93E00E94400C10922C01CA5747
:10368000DF4F0FB6F894DEBF0FBECDBFDF91CF91F5
:103690001F910F91FF90EF90DF90CF90BF90AF9070
:1036A0000895AF92BF92CF92DF92EF92FF920F9365
:1036B0001F935701680179018A019B0148EE53E08D
:1036C00060E070E00E94C8051F910F91FF90EF909D
:1036D000DF90CF90BF90AF900895EF92FF920F933D
:1036E0001F93CF93DF9300D000D0CDB7DEB77C011E
:1036F000862F4AE08E010F5F1F4FB80190E00E94B5
:103700009425F80101900020E9F73197AF01401BA3
:10371000510BB801C7010E94370A0F900F900F900C
:103720000F90DF91CF911F910F91FF90EF9008952F
:1037300041E050E062EE71E00C94370ACF92DF92E4
:10374000EF92FF920F931F93CF93DF938C01C62FBD
:103750000E94340C6B017C010C2E000CDD0B0E94CE
:10376000340CDC01CB018C199D09AE09BF09883EE0
:103770009340A105B10508F50E94340CDC01CB0192
:103780008C199D09AE09BF09883E9340A105B1057A
:10379000B0F4D80112968D919C911397DC01ED91B4
:1037A000FC910084F185E02D0995892B41F460E0BE
:1037B00070E0CB010E944E0BDFCF80E00EC0F8011D
:1037C00082819381DC01ED91FC910284F385E02DEF
:1037D00009958C179D0719F681E0DF91CF911F9114
:1037E0000F91FF90EF90DF90CF900895FC0124811E
:1037F0003581FB014481558124173507A0F0FC0178
:1038000080819181009779F0FB0160817181611560
:10381000710549F0241B350B820F931F0E948927E5
:1038200021E0892B09F020E0822F0895DC011C960D
:103830001C921C978D919C91DC01ED91FC91048868
:10384000F589E02D0994FC019485992369F0808124
:103850009181DC01ED91FC910688F789E02D0995B5
:1038600091E0811101C090E0892F08950C94061910
:10387000EF92FF920F931F93CF93DF938C017B0105
:10388000C0E0D0E0F701EC0FFD1F6491662361F00A
:10389000D801ED91FC910190F081E02DC8010995CE
:1038A000892B11F02196EECFCE01DF91CF911F91A0
:1038B0000F91FF90EF9008954F925F926F927F92D9
:1038C000AF92BF92CF92DF92EF92FF920F931F932E
:1038D000CF93DF93EC010E94340C2B013C010E943A
:1038E000340CDC01CB0184199509A609B709803194
:1038F0009742A105B105F8F46CE374E0CE010E9493
:10390000211AA12CB12CC12CD12CE12CF12C0FE2CD
:1039100014E027E334E048EC50E060E070E0CE01D2
:103920000E94C805813049F064E670E080E090E0D4
:103930000E944E0BD4CF80E001C081E0DF91CF9197
:103940001F910F91FF90EF90DF90CF90BF90AF90BD
:103950007F906F905F904F9008958F929F92AF925B
:10396000BF92DF92EF92FF920F931F93CF93DF935B
:10397000EC010E94340C4B015C010E94340CDC0110
:10398000CB0188199909AA09BB0980319742A10581
:10399000B10508F044C068E274E0CE010E94211A2B
:1039A000E12CF12C00E010E020E030E04FE254E0A8
:1039B0006FE174E0CE010E94511B813039F068EE56
:1039C00073E080E090E00E944E0BD7CF82EFE82EAC
:1039D00083E0F82E0CEF13E029E034E041E154E0FD
:1039E00069E174E0CE010E94511BD82EE12CF12C2C
:1039F00000E010E020E030E04FE254E067E374E0E4
:103A0000CE010E94511B81E0D81631F0D81638F053
:103A100023E02D1538F403C081E090E005C080E07C
:103A200090E002C082E090E0DF91CF911F910F9172
:103A3000FF90EF90DF90BF90AF909F908F90089590
:103A4000EF92FF920F931F93CF93DF93EC010E94AD
:103A50005C1C882361F16EEE73E0CE010E94211A96
:103A6000E12CF12C00E010E020E030E04FE254E0E7
:103A700067E374E0CE010E94511B6BEE73E0CE0150
:103A80000E94211A20E030E04FE254E067E374E046
:103A9000CE010E94511B813051F4CE010E94AD1C19
:103AA0009C012150310981E02230310508F080E08D
:103AB000DF91CF911F910F91FF90EF900895CF92DA
:103AC000DF92EF92FF920F931F93CF93DF9300D07B
:103AD000CDB7DEB78C016B01E42E68E871E00E947F
:103AE0005618C6010E9491180E2C000CFF0897FD75
:103AF00011C08E159F0571F089831A8241E050E054
:103B0000BE016F5F7F4FC8010E94370AC6010E9445
:103B10009118EDCFC8010F900F90DF91CF911F91B9
:103B20000F91FF90EF90DF90CF900895CF93DF93A8
:103B3000CDB7DEB760970FB6F894DEBF0FBECDBF2E
:103B4000789484B5826084BD84B5816084BD85B578
:103B5000826085BD85B5816085BD80916E00816084
:103B600080936E001092810080918100826080932A
:103B7000810080918100816080938100809180002C
:103B80008160809380008091B10084608093B10057
:103B90008091B00081608093B00080917A00846051
:103BA00080937A0080917A00826080937A0080917D
:103BB0007A00816080937A0080917A008068809397
:103BC0007A001092C10068EE73E080E090E00E94FD
:103BD0004E0B61E088E00E94120B60E082E00E94E0
:103BE000120B64E670E080E090E00E944E0B1092B1
:103BF00061021092600210925F0210925E021092B7
:103C00005D0210925C028EE393E0909363028093D6
:103C1000620290915202963108F058C02DE831E0CE
:103C200030935D0220935C022CE333E030935F021B
:103C300020935E0224E632E030936102209360021A
:103C400040916800983058F031E09E3008F430E040
:103C500021E0822F01C0880F3A95EAF701C084E085
:103C6000842B80936800983038F09E3040F0963175
:103C700048F020E030E008C02DE630E005C02BE63B
:103C800030E002C02CE630E030935A022093590213
:103C9000983030F481E001C0880F9A95EAF70EC0A1
:103CA000292F30E09E3018F42850310902C02E50E0
:103CB000310981E001C0880F2A95EAF780935B0201
:103CC00080916202909163020197F1F78091600206
:103CD00090916102892B49F1E091E601F091E701B1
:103CE00022E0E634F20709F1309739F0A389B4896C
:103CF0009C918589809589238C93809164028E7F25
:103D0000809364021092E5011092E40186E492E04F
:103D10009093E7018093E601E0915902F0915A02F5
:103D2000908180915B02892B808368EB7BE080E04F
:103D300090E00E944E0B85E392E00E945C1C882379
:103D400009F45DC069E271E085E392E00E94211A06
:103D5000A12CB12CC12CD12CE12CF12C0FE214E0C0
:103D600027E334E040E157E260E070E085E392E071
:103D70000E94C805813009F042C066E271E085E327
:103D800092E00E94211A00E010E020E030E04FE2D3
:103D900054E067E374E085E392E00E94511B6EE11A
:103DA00071E085E392E00E94211A0FE214E027E31C
:103DB00034E040E157E260E070E085E392E00E9489
:103DC000C8058130E1F464E171E085E392E00E948E
:103DD000211A27E334E040E157E260E070E085E338
:103DE00092E00E94C805813051F468EB7BE080E0EE
:103DF00090E00E944E0B85E392E00E94201D8BE034
:103E000091E09093AA038093A9030E94340CDC01F3
:103E1000CB0188589341A109B1098093B1039093D4
:103E2000B203A093B303B093B4038093AD03909314
:103E3000AE03A093AF03B093B0038093B503909308
:103E4000B603A093B703B093B80385E392E09093D1
:103E5000C1038093C0039093CF038093CE0381E08E
:103E60008093D0031092D2031092D1031092D30307
:103E70001092D4031092D5031092D6031092D70358
:103E80001092D80382EC93E090933C0280933B0223
:103E9000E091A703F091A8039183808380E797E1E5
:103EA000A0E0B0E08093C6039093C703A093C8033B
:103EB000B093C903E091A703F091A80389E891E0CA
:103EC0009187808780E590E0938782878091C00307
:103ED0009091C1030E94201D8823F9F08091C003B6
:103EE0009091C1030E94AD1C0097B9F00297A9F010
:103EF000A090C003B090C1030E94340C3B014C0160
:103F00000E94340CDC01CB0186199709A809B90974
:103F100080369A4EA105B10510F00E94DE1960E5C9
:103F200072E0C5010E94211AE12CF12C00E010E0A2
:103F300020E030E04FE254E067E472E0C5010E9407
:103F4000511B813039F56CE2C5010E949E1BD501E1
:103F500012966D917C9113974AE0CE0101960E94D2
:103F60005F1DCE0101960E942C0A1B012C01CE017F
:103F700001960E94191820E030E04FE254E067E318
:103F800074E0C5010E94511B2101E89442F84A9453
:103F9000452839F06AEF70E080E090E00E944E0B17
:103FA000AFCFA090C003B090C1036AE371E0C50138
:103FB0000E94211AE12CF12C00E010E020E030E01A
:103FC0004FE254E061E371E0C5010E94511B813072
:103FD00039F068E871E0CE0107960E9456182FC0AC
:103FE00062E2C5010E949E1BF5016281738142E27B
:103FF000CE0101960E945F1DE12CF12C00E010E043
:1040000020E030E04FE254E067E374E0C5010E9435
:10401000511B89819A8198878F838B819C819A8794
:1040200089878D819E819C878B871A8219821C8249
:104030001B821E821D82CE0101960E941918CE019C
:1040400007960E9419188090C0039090C10361E701
:1040500071E0C4010E94211AA12CB12CC12CD12CD9
:10406000E12CF12C0FE214E027E334E040E65AEEB5
:1040700060E070E0C4010E94C805813071F468E618
:1040800071E0C4010E94211A27E334E040E65AEEB1
:1040900060E070E0C4010E94C8056BE272E0C401F8
:1040A0000E94211AE12CF12C00E010E020E030E029
:1040B0004FE254E067E374E0C4010E94511B40E00A
:1040C00051E068E172E0C4010E94880B20E030E01A
:1040D0004FE254E067E374E0C4010E94511B8091F9
:1040E000EA01882381F04AEE51E064E072E0C40105
:1040F0000E94880B20E030E04FE254E067E374E078
:10410000C4010E94511B8091E9018823A1F049EE6E
:1041100051E061EF71E0C4010E94880BE12CF12CA9
:1041200000E010E020E030E04FE254E067E374E0AC
:10413000C4010E94511B40E051E06FED71E0C401E9
:104140000E94880BE12CF12C00E010E020E030E030
:104150004FE254E067E374E0C4010E94511B64ED38
:1041600071E0C4010E94211AA12CB12CC12CD12CC8
:104170000FE214E027E334E040E65AEE60E070E03E
:10418000C4010E94C80569EC71E0C4010E94211AB3
:1041900027E334E048E05CE461E070E0C4010E94A1
:1041A000C8056EEB71E0C4010E94211A27E334E0D8
:1041B00040E355E760E070E0C4010E94C80581302B
:1041C00009F0ABCE65EB71E0C4010E94211A27E330
:1041D00034E040E65AEE60E070E0C4010E94C80599
:1041E000813009F09ACE6BEA71E0C4010E94211A75
:1041F00000E010E020E030E04FE254E067E374E0DC
:10420000C4010E94511B813009F087CE6FE971E033
:10421000C4010E94211A20E030E04FE254E067E33D
:1042200074E0C4010E94511B813009F076CE63E92D
:1042300071E0C4010E94211A20E030E04FE254E016
:1042400067E374E0C4010E94511B813009F065CE20
:1042500063E871E0D40112968D919C9113970E94AE
:10426000361C6BE871E0F401828193810E94381C56
:1042700060E071E0D40112968D919C9113970E9499
:10428000361C67E871E0F401828193810E94381C3A
:104290006AEE71E0D40112968D919C9113970E9461
:1042A000361C63E871E0F401828193810E94381C1E
:1042B00069EE71E0D40112968D919C9113970E9442
:1042C000361C61E871E0F401828193810E94381C00
:1042D00066E871E0D40112968D919C9113970E942B
:1042E000361CF40182819381DC01ED91FC91068002
:1042F000F781E02D099560E070E0CB010E944E0B44
:104300000FE214E027E334E040E65AEE60E070E0AC
:10431000C4010E94C805813009F0FFCD6AE771E051
:10432000C4010E94211A27E334E040E65AEE60E01F
:1043300070E0C4010E94C805813009F0EECD6EE541
:1043400071E0C4010E94211A27E334E040E157E202
:1043500060E070E0C4010E94C805813009F0DDCD45
:1043600061E471E0C4010E94211A00E010E020E045
:1043700030E04FE254E067E374E0C4010E94511B57
:10438000813009F0CACD8091A7039091A8030E94C3
:10439000161C1092BF031092BE030E94340C4B01F6
:1043A0005C018091BE039091BF03019771F00E9460
:1043B000340CDC01CB0188199909AA09BB098035A5
:1043C0009644A105B10508F4E6C08091BE03909122
:1043D000BF030197C1F668EE73E080E090E00E94B1
:1043E0004E0B4CE557E16AEF79EE80E090E00E94D9
:1043F000080F47E757E168EE73E080E090E00E9425
:10440000080F95EAC92E93E0D92E22242394312C4B
:104410008091BE039091BF03019721F487EA93E056
:104420000E9468110E94340C6D877E878F87988B5D
:1044300085E6E82E82E0F82E8701D80153961C927B
:104440001E92529714968D919C911597892B09F481
:1044500048C08D909D90AD90BC9013976D857E85E2
:104460008F859889681979098A099B0919964D9051
:104470005D906D907C901C97641575058605970579
:1044800080F1A30192010E946726C301B2010E943C
:104490004326860E971EA81EB91EF80180829182BF
:1044A000A282B38281898823E1F025853685211592
:1044B000310519F4338A228A14C0D801878590897E
:1044C0008217930770F4338A228A0196908B87872C
:1044D0008217930730F0E2E0F0E05396FC93EE93FE
:1044E00052970C5E1F4FF3E0053A1F0709F0A5CF66
:1044F000D70152968D919C915397892BA9F11896CB
:104500008C9118971496ED91FC911597882331F0B2
:1045100016968D919C911797099501C00995F70101
:1045200082899389029701F58091A5039091A60352
:10453000892BD1F084819581892BB1F0D701E4E1F9
:104540001D92EA95E9F70E94340CD7016D937D9393
:104550008D939C9313978091A5039091A603019747
:104560009093A6038093A503B4E1EB0EF11CCE1447
:10457000DF0409F0BDCF82E00E94BA0A21E0892B56
:1045800009F420E02093E801E0E0F0E0309709F43E
:104590003FCF09953DCF87EA93E00E94681101CF94
:1045A0008FE391E090934702809346028091E60169
:1045B0009091E7018654924071F4E0915902F09194
:1045C0005A02908180915B028095892380831092AA
:1045D000E7011092E6010895DC01ED91FC9111973D
:1045E000309761F012962D913C911397E217F307E3
:1045F00028F401900020E9F7ED93FC930895FC0165
:1046000080819181009739F022813381821793074D
:1046100010F40C94362580E090E008958BE791E04B
:1046200090932B0480932A0410922C0410922D0452
:1046300010922E0410922F0410921E0410921D044A
:104640009093200480931F0410922104109222045E
:104650001092230410922404109226041092250430
:104660001092280410922704109229048DE194E0FE
:104670009093A8038093A7031092AA031092A90312
:104680001092AC031092AB031092AD031092AE03E4
:104690001092AF031092B0031092B1031092B203C4
:1046A0001092B3031092B4031092B5031092B603A4
:1046B0001092B7031092B8031092BA031092B90384
:1046C0001092BC031092BB031092BD031092BF0363
:1046D0001092BE031092C1031092C0031092C50342
:1046E0001092C40388EE93E0A0E0B0E08093C6038C
:1046F0009093C703A093C803B093C90321E531E0A9
:104700003093C3032093C20310921C0410921B0425
:1047100010921A04109219042FEF3FEF3093A60362
:104720002093A503109249021092480280934A02F6
:1047300090934B02A0934C02B0934D028FE391E013
:10474000909347028093460210925D0210925C02A1
:1047500010925F0210925E0210926102109260024B
:104760001092630210926202609164026E7F6D7F0C
:10477000609364026695617081E068278AE00E9418
:10478000E30A61E08AE00E94120BEFE6F4E0E491B4
:10479000E0935602EBE5F4E0E491F0E0EE0FFF1F4A
:1047A000E95BFB4F85919491909358028093570257
:1047B00060E089E00E94120B8091640281FD04C0D8
:1047C00061E089E00E94E30A89E080935202EEE60C
:1047D000F4E0E491E0935302EAE5F4E0E491F0E0E0
:1047E000EE0FFF1FE35CFB4F859194919093550270
:1047F0008093540281E0809345021092430210920C
:10480000440287E391E0909336028093350286E478
:1048100092E090933802809337028AE0E9E3F2E075
:10482000DF011D928A95E9F708950F931F93CF93A7
:10483000DF938230910510F482E090E0E091320441
:10484000F091330420E030E0A0E0B0E0309719F1BF
:10485000408151810281138148175907C8F084179C
:10486000950769F4109731F012960C9312971396EE
:104870001C9327C0009332041093330422C02115E7
:10488000310519F04217530718F49A01BD01EF01E1
:10489000DF01F801DBCF21153105F9F0281B390BB9
:1048A0002430310580F48A819B816115710521F0E6
:1048B000FB019383828304C090933304809332047A
:1048C000FE01329644C0FE01E20FF31F81939193E3
:1048D00022503109398328833AC020913004309125
:1048E0003104232B41F420912F013091300130937A
:1048F00031042093300420912D0130912E01211597
:10490000310541F42DB73EB740913101509132014C
:10491000241B350BE0913004F0913104E217F307CA
:10492000A0F42E1B3F0B2817390778F0AC014E5F1F
:104930005F4F2417350748F04E0F5F1F5093310427
:10494000409330048193919302C0E0E0F0E0CF0106
:10495000DF91CF911F910F910895CF93DF9300972F
:1049600009F481C0FC01329713821282A0913204B3
:10497000B0913304109781F420813181820F931F0D
:1049800020913004309131042817390751F5F09304
:104990003104E093300467C0ED0120E030E0CE1731
:1049A000DF0740F44A815B819E0141155105F1F01A
:1049B000EA01F5CFD383C28340815181840F951FD3
:1049C000C817D90759F488819981840F951F0296D9
:1049D000918380838A819B81938382832115310512
:1049E00029F4F0933304E09332043DC0E901FB83E2
:1049F000EA8349915991C40FD51FEC17FD0761F463
:104A000080819181840F951F0296E90199838883A3
:104A1000828193819B838A83E0E0F0E012968D91FE
:104A20009C911397009719F0FD01DC01F7CF8D9150
:104A30009C9111979D012E5F3F4F820F931F2091F4
:104A40003004309131042817390769F4309729F47C
:104A5000109233041092320402C013821282B09377
:104A60003104A0933004DF91CF910895FC01882791
:104A70009927E89421912032E9F3293010F02E3063
:104A8000C8F32B3241F02D3239F4689404C00E94EF
:104A9000B425820F911D219120532A30C0F31EF4BA
:104AA000909581959F4F08951F93FC019927882722
:104AB000BC01E89411911032E9F3193010F01E3066
:104AC000C8F31B3251F01D3249F4689406C00E94AD
:104AD0009F25610F711D811D911D119110531A3079
:104AE000B0F33EF490958095709561957F4F8F4F10
:104AF0009F4F1F910895FB01DC0102C005900D92AC
:104B000041505040D8F70895FB01DC0105900D920B
:104B10000020E1F70895FC0105900020E9F7809559
:104B200090958E0F9F1F0895BB274A3031F499232B
:104B300022F4BDE2909581959F4F0C94BD25592F8D
:104B4000482F372F262F660F771F881F991F660F54
:104B5000771F881F991F620F731F841F951F660F91
:104B6000771F881F991F08957AE0979F902D879F40
:104B7000802D910D11240895BB27FB015527AA27ED
:104B8000880F991FAA1FA41710F0A41B83955051DA
:104B9000B9F7A05DAA3308F0A95DA193009779F752
:104BA000B111B1931192CB010C94DF2591110C94AA
:104BB000EF25803219F089508550C8F70895DC013F
:104BC000FC01672F71917723E1F7329704C07C9144
:104BD0006D9370836291AE17BF07C8F3089599274C
:104BE000882708950E943426A59F900DB49F900DAC
:104BF000A49F800D911D112408952F923F924F92F2
:104C00005F926F927F928F929F92AF92BF92CF925C
:104C1000DF92EF92FF920F931F93CF93DF93CDB765
:104C2000DEB7CA1BDB0B0FB6F894DEBF0FBECDBFDD
:104C300009942A88398848885F846E847D848C84AE
:104C40009B84AA84B984C884DF80EE80FD800C81B7
:104C50001B81AA81B981CE0FD11D0FB6F894DEBF9A
:104C60000FBECDBFED010895A29FB001B39FC0015B
:104C7000A39F700D811D1124911DB29F700D811D88
:104C80001124911D0895DB018F939F930E94F225BB
:104C9000BF91AF91A29F800D911DA39F900DB29FD8
:104CA000900D1124089597FB072E16F4009407D059
:104CB00077FD09D00E94902607FC05D03EF4909520
:104CC00081959F4F0895709561957F4F0895A1E25A
:104CD0001A2EAA1BBB1BFD010DC0AA1FBB1FEE1F76
:104CE000FF1FA217B307E407F50720F0A21BB30BC1
:104CF000E40BF50B661F771F881F991F1A9469F73D
:104D000060957095809590959B01AC01BD01CF0198
:104D100008950E943426B7FF0895821B930B0895CF
:104D2000AA1BBB1B51E107C0AA1FBB1FA617B707D1
:104D300010F0A61BB70B881F991F5A95A9F78095ED
:104D40009095BC01CD010895EE0FFF1F0590F491E1
:104D5000E02D0994A0E0B0E0E0EBF6E20C9401262F
:104D6000EC01009721F4CB010E941524B4C0FC0192
:104D7000E60FF71F9C0122503109E217F30708F4F0
:104D8000A8C0D9010D911C91119706171707B0F013
:104D90000530110508F49BC0C801049786179707D2
:104DA00008F495C002501109061B170B01931193CB
:104DB0006D937C93CF010E94AD2489C05B01A01A42
:104DC000B10A4C01800E911EA0913204B0913304BF
:104DD000612C712CE12CF12C109709F446C08D91B7
:104DE0009C911197A815B905B1F56C0142E0C40E6C
:104DF000D11CCA14DB0478F14C018A189B086401A9
:104E000042E0C40ED11C1296BC9012971396AC913E
:104E1000B5E0CB16D10440F0B282A38391828082A8
:104E2000D9016D937C9309C00E5F1F4F800F911FB6
:104E3000F90191838083EB2DFA2FE114F10431F015
:104E4000D7011396FC93EE93129741C0F09333046D
:104E5000E09332043CC06816790608F43C017D01F9
:104E600012960D90BC91A02DB7CF809130049091F7
:104E7000310488169906E1F466167706C8F4809125
:104E80002D0190912E01009741F48DB79EB740916E
:104E9000310150913201841B950BE817F907C8F4D2
:104EA000F0933104E0933004F901718360830FC003
:104EB000CB010E9415247C01009759F0A801BE0186
:104EC0000E947527CE010E94AD24C70104C0CE0107
:104ED00002C080E090E0CDB7DEB7EEE00C941D2676
:104EE00081E090E0F8940C94C227FB01DC0102C041
:104EF00001900D9241505040D8F70895FC018191E6
:104F0000861721F08823D9F7992708953197CF0183
:104F10000895FB01DC018D91019080190110D9F3F6
:104F2000990B0895FB01DC0101900D920020E1F73F
:104F30000895FB01DC014150504048F001900D9272
:104F40000020C9F701C01D9241505040E0F708957C
:104F5000FB0151915523A9F0BF01DC014D9145178B
:104F60004111E1F759F4CD010190002049F04D9134
:104F700040154111C9F3FB014111EFCF81E090E0F1
:104F80000197089512E0CEE3D2E004C0FE010E9432
:0E4F9000A4262196CF33D107C9F7F894FFCF9E
:104F9E00762D696E7465726E657400733451355773
:104FAE006739766661344E70427677733561626327
:104FBE00335F546D625759564C385A000100003415
:104FCE00042000000000003A05110300000000D18B
:104FDE00168E160E03D01621173917B816000000BC
:104FEE0000B4023C050E0387020C0498029502D50C
:104FFE000204031503CA02760269023B0513039DE0
:10500E0008780981046C0400000000C81800000034
:10501E0000E0094154000D0A00626C796E6B2D633D
:10502E006C6F75642E636F6D007677006477006920
:10503E006E006F75740070776D006177007075008B
:10504E006900724857414A783262367572334F6E34
:10505E005A48565435746E6D6B33376843467A4EE4
:10506E00514800C490E1BB936E672062E1BB99206A
:04507E0031002E00CF
:00000001FF
